{
  "_format": "hh-sol-artifact-1",
  "contractName": "FileManage",
  "sourceName": "contracts/FileManage.sol",
  "abi": [
    {
      "inputs": [],
      "stateMutability": "nonpayable",
      "type": "constructor"
    },
    {
      "anonymous": false,
      "inputs": [
        {
          "indexed": true,
          "internalType": "address",
          "name": "creator",
          "type": "address"
        },
        {
          "indexed": true,
          "internalType": "uint256",
          "name": "clusterId",
          "type": "uint256"
        }
      ],
      "name": "AcceptFileCluster",
      "type": "event"
    },
    {
      "anonymous": false,
      "inputs": [
        {
          "indexed": true,
          "internalType": "address",
          "name": "requester",
          "type": "address"
        },
        {
          "indexed": true,
          "internalType": "uint256",
          "name": "fileId",
          "type": "uint256"
        }
      ],
      "name": "AccessGranted",
      "type": "event"
    },
    {
      "anonymous": false,
      "inputs": [
        {
          "indexed": true,
          "internalType": "address",
          "name": "requester",
          "type": "address"
        },
        {
          "indexed": true,
          "internalType": "uint256",
          "name": "fileId",
          "type": "uint256"
        }
      ],
      "name": "AccessRejected",
      "type": "event"
    },
    {
      "anonymous": false,
      "inputs": [
        {
          "indexed": true,
          "internalType": "address",
          "name": "requester",
          "type": "address"
        },
        {
          "indexed": true,
          "internalType": "uint256",
          "name": "fileId",
          "type": "uint256"
        }
      ],
      "name": "AccessRequested",
      "type": "event"
    },
    {
      "anonymous": false,
      "inputs": [
        {
          "indexed": true,
          "internalType": "address",
          "name": "creator",
          "type": "address"
        },
        {
          "indexed": true,
          "internalType": "uint256",
          "name": "clusterId",
          "type": "uint256"
        }
      ],
      "name": "CreateCluster",
      "type": "event"
    },
    {
      "anonymous": false,
      "inputs": [
        {
          "indexed": true,
          "internalType": "address",
          "name": "uploader",
          "type": "address"
        },
        {
          "indexed": true,
          "internalType": "uint256",
          "name": "fileId",
          "type": "uint256"
        },
        {
          "indexed": false,
          "internalType": "string",
          "name": "name",
          "type": "string"
        },
        {
          "indexed": false,
          "internalType": "string",
          "name": "ipfsHash",
          "type": "string"
        }
      ],
      "name": "FileUploaded",
      "type": "event"
    },
    {
      "anonymous": false,
      "inputs": [
        {
          "indexed": true,
          "internalType": "address",
          "name": "creator",
          "type": "address"
        },
        {
          "indexed": true,
          "internalType": "uint256",
          "name": "clusterId",
          "type": "uint256"
        }
      ],
      "name": "RejectFileCluster",
      "type": "event"
    },
    {
      "inputs": [
        {
          "internalType": "uint256",
          "name": "_idCluster",
          "type": "uint256"
        },
        {
          "internalType": "uint256",
          "name": "_fileId",
          "type": "uint256"
        }
      ],
      "name": "acceptFile",
      "outputs": [],
      "stateMutability": "nonpayable",
      "type": "function"
    },
    {
      "inputs": [],
      "name": "clusterCount",
      "outputs": [
        {
          "internalType": "uint256",
          "name": "",
          "type": "uint256"
        }
      ],
      "stateMutability": "view",
      "type": "function"
    },
    {
      "inputs": [
        {
          "internalType": "uint256",
          "name": "",
          "type": "uint256"
        }
      ],
      "name": "clusters",
      "outputs": [
        {
          "internalType": "string",
          "name": "name",
          "type": "string"
        },
        {
          "internalType": "uint256",
          "name": "countFile",
          "type": "uint256"
        }
      ],
      "stateMutability": "view",
      "type": "function"
    },
    {
      "inputs": [
        {
          "internalType": "string",
          "name": "_name",
          "type": "string"
        }
      ],
      "name": "createCluster",
      "outputs": [],
      "stateMutability": "nonpayable",
      "type": "function"
    },
    {
      "inputs": [
        {
          "internalType": "string",
          "name": "_name",
          "type": "string"
        },
        {
          "internalType": "string",
          "name": "_description",
          "type": "string"
        },
        {
          "internalType": "string",
          "name": "_ipfsHash",
          "type": "string"
        },
        {
          "internalType": "string",
          "name": "_createdAt",
          "type": "string"
        },
        {
          "internalType": "uint256",
          "name": "_idCluster",
          "type": "uint256"
        }
      ],
      "name": "createFile",
      "outputs": [],
      "stateMutability": "nonpayable",
      "type": "function"
    },
    {
      "inputs": [
        {
          "internalType": "uint256",
          "name": "_clusterId",
          "type": "uint256"
        }
      ],
      "name": "getClusterById",
      "outputs": [
        {
          "components": [
            {
              "internalType": "uint256",
              "name": "id",
              "type": "uint256"
            },
            {
              "internalType": "string",
              "name": "name",
              "type": "string"
            }
          ],
          "internalType": "struct FileManage.ClusterData",
          "name": "",
          "type": "tuple"
        }
      ],
      "stateMutability": "view",
      "type": "function"
    },
    {
      "inputs": [],
      "name": "getClusters",
      "outputs": [
        {
          "components": [
            {
              "internalType": "uint256",
              "name": "id",
              "type": "uint256"
            },
            {
              "internalType": "string",
              "name": "name",
              "type": "string"
            }
          ],
          "internalType": "struct FileManage.ClusterData[]",
          "name": "",
          "type": "tuple[]"
        }
      ],
      "stateMutability": "view",
      "type": "function"
    },
    {
      "inputs": [
        {
          "internalType": "uint256",
          "name": "_idCluster",
          "type": "uint256"
        }
      ],
      "name": "getFilesByCluster",
      "outputs": [
        {
          "components": [
            {
              "internalType": "uint256",
              "name": "id",
              "type": "uint256"
            },
            {
              "internalType": "string",
              "name": "name",
              "type": "string"
            },
            {
              "internalType": "string",
              "name": "description",
              "type": "string"
            },
            {
              "internalType": "string",
              "name": "ipfsHash",
              "type": "string"
            },
            {
              "internalType": "string",
              "name": "createdAt",
              "type": "string"
            },
            {
              "internalType": "address",
              "name": "author",
              "type": "address"
            },
            {
              "internalType": "enum FileManage.Status",
              "name": "isAvailable",
              "type": "uint8"
            }
          ],
          "internalType": "struct FileManage.FileData[]",
          "name": "",
          "type": "tuple[]"
        }
      ],
      "stateMutability": "view",
      "type": "function"
    },
    {
      "inputs": [],
      "name": "getFilesByMe",
      "outputs": [
        {
          "components": [
            {
              "internalType": "uint256",
              "name": "id",
              "type": "uint256"
            },
            {
              "internalType": "string",
              "name": "name",
              "type": "string"
            },
            {
              "internalType": "string",
              "name": "description",
              "type": "string"
            },
            {
              "internalType": "string",
              "name": "ipfsHash",
              "type": "string"
            },
            {
              "internalType": "string",
              "name": "createdAt",
              "type": "string"
            },
            {
              "internalType": "address",
              "name": "author",
              "type": "address"
            },
            {
              "internalType": "enum FileManage.Status",
              "name": "isAvailable",
              "type": "uint8"
            }
          ],
          "internalType": "struct FileManage.FileData[]",
          "name": "",
          "type": "tuple[]"
        }
      ],
      "stateMutability": "view",
      "type": "function"
    },
    {
      "inputs": [
        {
          "internalType": "uint256",
          "name": "_idCluster",
          "type": "uint256"
        },
        {
          "internalType": "uint256",
          "name": "_fileId",
          "type": "uint256"
        }
      ],
      "name": "rejectFile",
      "outputs": [],
      "stateMutability": "nonpayable",
      "type": "function"
    }
  ],
  "bytecode": "0x608060405234801561001057600080fd5b50600080546001600160a01b031916331790556115eb806100326000396000f3fe608060405234801561001057600080fd5b506004361061009e5760003560e01c8063919500c011610066578063919500c01461012d578063b2206ade1461014e578063d832af7414610161578063eb1e92e314610174578063f282a4611461017c57600080fd5b80630cec1751146100a357806316f1d42a146100cc5780632b0b37f6146100e1578063390deb1d14610101578063702f45f314610116575b600080fd5b6100b66100b13660046110f0565b61018f565b6040516100c3919061118e565b60405180910390f35b6100d4610519565b6040516100c391906112a6565b6100f46100ef3660046110f0565b61066f565b6040516100c39190611308565b61011461010f3660046113c5565b61073e565b005b61011f60025481565b6040519081526020016100c3565b61014061013b3660046110f0565b610847565b6040516100c39291906113fa565b61011461015c36600461141c565b6108eb565b61011461016f3660046114d1565b6109e8565b6100b6610b09565b61011461018a3660046114d1565b610ee0565b6000818152600160208190526040822001546060919067ffffffffffffffff8111156101bd576101bd611322565b6040519080825280602002602001820160405280156101f657816020015b6101e3611001565b8152602001906001900390816101db5790505b5090506000805b600085815260016020819052604090912001548110156105105760008581526001602090815260408083208484526002019091528120845190919085908590811061024a5761024a6114f3565b60209081029190910101518481528254909150829061026890611509565b80601f016020809104026020016040519081016040528092919081815260200182805461029490611509565b80156102e15780601f106102b6576101008083540402835291602001916102e1565b820191906000526020600020905b8154815290600101906020018083116102c457829003601f168201915b505050505081602001819052508160010180546102fd90611509565b80601f016020809104026020016040519081016040528092919081815260200182805461032990611509565b80156103765780601f1061034b57610100808354040283529160200191610376565b820191906000526020600020905b81548152906001019060200180831161035957829003601f168201915b5050505050816040018190525081600201805461039290611509565b80601f01602080910402602001604051908101604052809291908181526020018280546103be90611509565b801561040b5780601f106103e05761010080835404028352916020019161040b565b820191906000526020600020905b8154815290600101906020018083116103ee57829003601f168201915b5050505050606082015260038201546001600160a01b031660a082015260048201805461043790611509565b80601f016020809104026020016040519081016040528092919081815260200182805461046390611509565b80156104b05780601f10610485576101008083540402835291602001916104b0565b820191906000526020600020905b81548152906001019060200180831161049357829003601f168201915b50505050506080820152600582015460c082019060ff1660028111156104d8576104d8611156565b908160028111156104eb576104eb611156565b905250836104f881611554565b9450505050808061050890611554565b9150506101fd565b50815292915050565b6060600060025467ffffffffffffffff81111561053857610538611322565b60405190808252806020026020018201604052801561057e57816020015b6040805180820190915260008152606060208201528152602001906001900390816105565790505b50905060005b60025481101561066957600081815260016020526040812083519091908490849081106105b3576105b36114f3565b6020908102919091010151838152825490915082906105d190611509565b80601f01602080910402602001604051908101604052809291908181526020018280546105fd90611509565b801561064a5780601f1061061f5761010080835404028352916020019161064a565b820191906000526020600020905b81548152906001019060200180831161062d57829003601f168201915b505050506020909201525081905061066181611554565b915050610584565b50919050565b60408051808201909152600081526060602082015260008281526001602090815260408083208151808301909252858252805490939282019084906106b390611509565b80601f01602080910402602001604051908101604052809291908181526020018280546106df90611509565b801561072c5780601f106107015761010080835404028352916020019161072c565b820191906000526020600020905b81548152906001019060200180831161070f57829003601f168201915b50505091909252509095945050505050565b6000546001600160a01b031633146107955760405162461bcd60e51b815260206004820152601560248201527446696c65206973206e6f7420617661696c61626c6560581b60448201526064015b60405180910390fd5b60028054600091826107a683611554565b9091555060008181526001602090815260409091208451929350916107d091839190860190611057565b50600380546001810182556000919091528351610814917fc2575a0e9e593c00f959f8c92f12db2869c3395a3b0502d05e2516446f71f85b01906020860190611057565b50604051829033907fc66d40b177a2bdb4dd71f50876e997d911ea40c2be60b1be26a39e10a076faab90600090a3505050565b60016020526000908152604090208054819061086290611509565b80601f016020809104026020016040519081016040528092919081815260200182805461088e90611509565b80156108db5780601f106108b0576101008083540402835291602001916108db565b820191906000526020600020905b8154815290600101906020018083116108be57829003601f168201915b5050505050908060010154905082565b60008181526001602081905260408220018054908261090983611554565b909155506000838152600160209081526040808320848452600201825290912088519293509161093e918391908a0190611057565b5085516109549060018301906020890190611057565b50845161096a9060028301906020880190611057565b506003810180546001600160a01b0319163317905583516109949060048301906020870190611057565b5060058101805460ff19169055604051829033907f931a47dbf66bf525c4f6017aa076b195a2dbc0f5ce1038738322cf763ecc0232906109d7908b908a9061156f565b60405180910390a350505050505050565b6000828152600160209081526040808320848452600201909152812090546001600160a01b03163314610a5d5760405162461bcd60e51b815260206004820152601a60248201527f4f6e6c792061646d696e2063616e2072656a6563742066696c65000000000000604482015260640161078c565b6000600582015460ff166002811115610a7857610a78611156565b14610abb5760405162461bcd60e51b815260206004820152601360248201527246696c65206973206e6f742070656e64696e6760681b604482015260640161078c565b60058101805460ff19166002179055600381015460405184916001600160a01b0316907fddf21da737cbdeb0d7d491a57478dfa3e50e928716f9c7b0d7da21adf2974b2790600090a3505050565b60606000805b600254811015610b4a5760008181526001602081905260409091200154610b36908361159d565b915080610b4281611554565b915050610b0f565b5060008167ffffffffffffffff811115610b6657610b66611322565b604051908082528060200260200182016040528015610b9f57816020015b610b8c611001565b815260200190600190039081610b845790505b5090506000805b600254811015610510576000818152600160205260408120905b8160010154811015610ecb576000818152600283016020526040902060038101546001600160a01b0316331415610eb8576000868681518110610c0557610c056114f3565b602090810291909101015186815282549091508290610c2390611509565b80601f0160208091040260200160405190810160405280929190818152602001828054610c4f90611509565b8015610c9c5780601f10610c7157610100808354040283529160200191610c9c565b820191906000526020600020905b815481529060010190602001808311610c7f57829003601f168201915b50505050508160200181905250816001018054610cb890611509565b80601f0160208091040260200160405190810160405280929190818152602001828054610ce490611509565b8015610d315780601f10610d0657610100808354040283529160200191610d31565b820191906000526020600020905b815481529060010190602001808311610d1457829003601f168201915b50505050508160400181905250816002018054610d4d90611509565b80601f0160208091040260200160405190810160405280929190818152602001828054610d7990611509565b8015610dc65780601f10610d9b57610100808354040283529160200191610dc6565b820191906000526020600020905b815481529060010190602001808311610da957829003601f168201915b5050505050606082015260038201546001600160a01b031660a0820152600482018054610df290611509565b80601f0160208091040260200160405190810160405280929190818152602001828054610e1e90611509565b8015610e6b5780601f10610e4057610100808354040283529160200191610e6b565b820191906000526020600020905b815481529060010190602001808311610e4e57829003601f168201915b50505050506080820152600582015460c082019060ff166002811115610e9357610e93611156565b90816002811115610ea657610ea6611156565b90525085610eb381611554565b965050505b5080610ec381611554565b915050610bc0565b50508080610ed890611554565b915050610ba6565b6000828152600160209081526040808320848452600201909152812090546001600160a01b03163314610f555760405162461bcd60e51b815260206004820152601a60248201527f4f6e6c792061646d696e2063616e206163636570742066696c65000000000000604482015260640161078c565b6000600582015460ff166002811115610f7057610f70611156565b14610fb35760405162461bcd60e51b815260206004820152601360248201527246696c65206973206e6f742070656e64696e6760681b604482015260640161078c565b60058101805460ff19166001179055600381015460405184916001600160a01b0316907f918bd49f08e7493446fe6d173e80824713f479e3938537da33ed68e70e8b6b1490600090a3505050565b6040518060e00160405280600081526020016060815260200160608152602001606081526020016060815260200160006001600160a01b031681526020016000600281111561105257611052611156565b905290565b82805461106390611509565b90600052602060002090601f01602090048101928261108557600085556110cb565b82601f1061109e57805160ff19168380011785556110cb565b828001600101855582156110cb579182015b828111156110cb5782518255916020019190600101906110b0565b506110d79291506110db565b5090565b5b808211156110d757600081556001016110dc565b60006020828403121561110257600080fd5b5035919050565b6000815180845260005b8181101561112f57602081850181015186830182015201611113565b81811115611141576000602083870101525b50601f01601f19169290920160200192915050565b634e487b7160e01b600052602160045260246000fd5b6003811061118a57634e487b7160e01b600052602160045260246000fd5b9052565b60006020808301818452808551808352604092508286019150828160051b87010184880160005b8381101561127157603f19898403018552815160e08151855288820151818a8701526111e382870182611109565b91505087820151858203898701526111fb8282611109565b915050606080830151868303828801526112158382611109565b92505050608080830151868303828801526112308382611109565b60a0858101516001600160a01b03169089015260c09485015194909350915061125d90508187018461116c565b5095880195935050908601906001016111b5565b509098975050505050505050565b80518252600060208201516040602085015261129e6040850182611109565b949350505050565b6000602080830181845280855180835260408601915060408160051b870101925083870160005b828110156112fb57603f198886030184526112e985835161127f565b945092850192908501906001016112cd565b5092979650505050505050565b60208152600061131b602083018461127f565b9392505050565b634e487b7160e01b600052604160045260246000fd5b600082601f83011261134957600080fd5b813567ffffffffffffffff8082111561136457611364611322565b604051601f8301601f19908116603f0116810190828211818310171561138c5761138c611322565b816040528381528660208588010111156113a557600080fd5b836020870160208301376000602085830101528094505050505092915050565b6000602082840312156113d757600080fd5b813567ffffffffffffffff8111156113ee57600080fd5b61129e84828501611338565b60408152600061140d6040830185611109565b90508260208301529392505050565b600080600080600060a0868803121561143457600080fd5b853567ffffffffffffffff8082111561144c57600080fd5b61145889838a01611338565b9650602088013591508082111561146e57600080fd5b61147a89838a01611338565b9550604088013591508082111561149057600080fd5b61149c89838a01611338565b945060608801359150808211156114b257600080fd5b506114bf88828901611338565b95989497509295608001359392505050565b600080604083850312156114e457600080fd5b50508035926020909101359150565b634e487b7160e01b600052603260045260246000fd5b600181811c9082168061151d57607f821691505b6020821081141561066957634e487b7160e01b600052602260045260246000fd5b634e487b7160e01b600052601160045260246000fd5b60006000198214156115685761156861153e565b5060010190565b6040815260006115826040830185611109565b82810360208401526115948185611109565b95945050505050565b600082198211156115b0576115b061153e565b50019056fea26469706673582212203d871c812861a57d86702481b9e8143b8e2e3e794b7b3080ae2c77a510b74c2764736f6c63430008090033",
  "linkReferences": {},
  "deployedLinkReferences": {}
}