{
  "_format": "hh-sol-artifact-1",
  "contractName": "FileManage",
  "sourceName": "contracts/FileManage.sol",
  "abi": [
    {
      "inputs": [],
      "stateMutability": "nonpayable",
      "type": "constructor"
    },
    {
      "anonymous": false,
      "inputs": [
        {
          "indexed": true,
          "internalType": "address",
          "name": "creator",
          "type": "address"
        },
        {
          "indexed": true,
          "internalType": "uint256",
          "name": "clusterId",
          "type": "uint256"
        }
      ],
      "name": "AcceptFileCluster",
      "type": "event"
    },
    {
      "anonymous": false,
      "inputs": [
        {
          "indexed": true,
          "internalType": "address",
          "name": "requester",
          "type": "address"
        },
        {
          "indexed": false,
          "internalType": "string",
          "name": "cluserName",
          "type": "string"
        },
        {
          "indexed": false,
          "internalType": "string",
          "name": "fileName",
          "type": "string"
        }
      ],
      "name": "AccessGranted",
      "type": "event"
    },
    {
      "anonymous": false,
      "inputs": [
        {
          "indexed": true,
          "internalType": "address",
          "name": "requester",
          "type": "address"
        },
        {
          "indexed": false,
          "internalType": "string",
          "name": "cluserName",
          "type": "string"
        },
        {
          "indexed": false,
          "internalType": "string",
          "name": "fileName",
          "type": "string"
        }
      ],
      "name": "AccessRemoved",
      "type": "event"
    },
    {
      "anonymous": false,
      "inputs": [
        {
          "indexed": true,
          "internalType": "address",
          "name": "requester",
          "type": "address"
        },
        {
          "indexed": false,
          "internalType": "string",
          "name": "cluserName",
          "type": "string"
        },
        {
          "indexed": false,
          "internalType": "string",
          "name": "fileName",
          "type": "string"
        }
      ],
      "name": "AccessRequested",
      "type": "event"
    },
    {
      "anonymous": false,
      "inputs": [
        {
          "indexed": true,
          "internalType": "address",
          "name": "creator",
          "type": "address"
        },
        {
          "indexed": true,
          "internalType": "uint256",
          "name": "clusterId",
          "type": "uint256"
        }
      ],
      "name": "CreateCluster",
      "type": "event"
    },
    {
      "anonymous": false,
      "inputs": [
        {
          "indexed": true,
          "internalType": "address",
          "name": "uploader",
          "type": "address"
        },
        {
          "indexed": true,
          "internalType": "uint256",
          "name": "fileId",
          "type": "uint256"
        },
        {
          "indexed": false,
          "internalType": "string",
          "name": "name",
          "type": "string"
        },
        {
          "indexed": false,
          "internalType": "string",
          "name": "ipfsHash",
          "type": "string"
        }
      ],
      "name": "FileUploaded",
      "type": "event"
    },
    {
      "anonymous": false,
      "inputs": [
        {
          "indexed": true,
          "internalType": "address",
          "name": "creator",
          "type": "address"
        },
        {
          "indexed": true,
          "internalType": "uint256",
          "name": "clusterId",
          "type": "uint256"
        }
      ],
      "name": "RejectFileCluster",
      "type": "event"
    },
    {
      "anonymous": false,
      "inputs": [
        {
          "indexed": true,
          "internalType": "address",
          "name": "user",
          "type": "address"
        }
      ],
      "name": "UserSignin",
      "type": "event"
    },
    {
      "anonymous": false,
      "inputs": [
        {
          "indexed": true,
          "internalType": "address",
          "name": "user",
          "type": "address"
        }
      ],
      "name": "UserUpdated",
      "type": "event"
    },
    {
      "inputs": [
        {
          "internalType": "uint256",
          "name": "_idCluster",
          "type": "uint256"
        },
        {
          "internalType": "uint256",
          "name": "_fileId",
          "type": "uint256"
        }
      ],
      "name": "acceptFile",
      "outputs": [],
      "stateMutability": "nonpayable",
      "type": "function"
    },
    {
      "inputs": [],
      "name": "clusterCount",
      "outputs": [
        {
          "internalType": "uint256",
          "name": "",
          "type": "uint256"
        }
      ],
      "stateMutability": "view",
      "type": "function"
    },
    {
      "inputs": [
        {
          "internalType": "uint256",
          "name": "",
          "type": "uint256"
        }
      ],
      "name": "clusters",
      "outputs": [
        {
          "internalType": "address",
          "name": "author",
          "type": "address"
        },
        {
          "internalType": "string",
          "name": "name",
          "type": "string"
        },
        {
          "internalType": "uint256",
          "name": "countFile",
          "type": "uint256"
        }
      ],
      "stateMutability": "view",
      "type": "function"
    },
    {
      "inputs": [
        {
          "internalType": "string",
          "name": "_name",
          "type": "string"
        }
      ],
      "name": "createCluster",
      "outputs": [],
      "stateMutability": "nonpayable",
      "type": "function"
    },
    {
      "inputs": [
        {
          "internalType": "string",
          "name": "_name",
          "type": "string"
        },
        {
          "internalType": "string",
          "name": "_description",
          "type": "string"
        },
        {
          "internalType": "string",
          "name": "_ipfsHash",
          "type": "string"
        },
        {
          "internalType": "string",
          "name": "_createdAt",
          "type": "string"
        },
        {
          "internalType": "string",
          "name": "_catalog",
          "type": "string"
        },
        {
          "internalType": "uint256",
          "name": "_idCluster",
          "type": "uint256"
        }
      ],
      "name": "createFile",
      "outputs": [],
      "stateMutability": "nonpayable",
      "type": "function"
    },
    {
      "inputs": [],
      "name": "getAllFilesAvailableNotMine",
      "outputs": [
        {
          "components": [
            {
              "internalType": "uint256",
              "name": "id",
              "type": "uint256"
            },
            {
              "internalType": "string",
              "name": "name",
              "type": "string"
            },
            {
              "internalType": "string",
              "name": "description",
              "type": "string"
            },
            {
              "internalType": "string",
              "name": "ipfsHash",
              "type": "string"
            },
            {
              "internalType": "string",
              "name": "createdAt",
              "type": "string"
            },
            {
              "internalType": "string",
              "name": "catalog",
              "type": "string"
            },
            {
              "internalType": "address",
              "name": "author",
              "type": "address"
            },
            {
              "internalType": "string",
              "name": "authorName",
              "type": "string"
            },
            {
              "internalType": "enum Status",
              "name": "isAvailable",
              "type": "uint8"
            },
            {
              "internalType": "string",
              "name": "clusterName",
              "type": "string"
            },
            {
              "internalType": "uint256",
              "name": "clusterId",
              "type": "uint256"
            }
          ],
          "internalType": "struct FileData[]",
          "name": "",
          "type": "tuple[]"
        }
      ],
      "stateMutability": "view",
      "type": "function"
    },
    {
      "inputs": [
        {
          "internalType": "uint256",
          "name": "_clusterId",
          "type": "uint256"
        },
        {
          "internalType": "uint256",
          "name": "_fileId",
          "type": "uint256"
        }
      ],
      "name": "getAllRequestedFiles",
      "outputs": [
        {
          "components": [
            {
              "internalType": "address",
              "name": "addressUser",
              "type": "address"
            },
            {
              "internalType": "string",
              "name": "name",
              "type": "string"
            },
            {
              "internalType": "enum Role",
              "name": "role",
              "type": "uint8"
            }
          ],
          "internalType": "struct User[]",
          "name": "",
          "type": "tuple[]"
        }
      ],
      "stateMutability": "view",
      "type": "function"
    },
    {
      "inputs": [
        {
          "internalType": "uint256",
          "name": "_clusterId",
          "type": "uint256"
        },
        {
          "internalType": "uint256",
          "name": "_fileId",
          "type": "uint256"
        }
      ],
      "name": "getAllUserAccessFile",
      "outputs": [
        {
          "components": [
            {
              "internalType": "address",
              "name": "addressUser",
              "type": "address"
            },
            {
              "internalType": "string",
              "name": "name",
              "type": "string"
            },
            {
              "internalType": "enum Role",
              "name": "role",
              "type": "uint8"
            }
          ],
          "internalType": "struct User[]",
          "name": "",
          "type": "tuple[]"
        }
      ],
      "stateMutability": "view",
      "type": "function"
    },
    {
      "inputs": [
        {
          "internalType": "uint256",
          "name": "_clusterId",
          "type": "uint256"
        }
      ],
      "name": "getClusterById",
      "outputs": [
        {
          "components": [
            {
              "internalType": "uint256",
              "name": "id",
              "type": "uint256"
            },
            {
              "internalType": "string",
              "name": "name",
              "type": "string"
            }
          ],
          "internalType": "struct ClusterData",
          "name": "",
          "type": "tuple"
        }
      ],
      "stateMutability": "view",
      "type": "function"
    },
    {
      "inputs": [],
      "name": "getClusters",
      "outputs": [
        {
          "components": [
            {
              "internalType": "uint256",
              "name": "id",
              "type": "uint256"
            },
            {
              "internalType": "string",
              "name": "name",
              "type": "string"
            }
          ],
          "internalType": "struct ClusterData[]",
          "name": "",
          "type": "tuple[]"
        }
      ],
      "stateMutability": "view",
      "type": "function"
    },
    {
      "inputs": [],
      "name": "getClustersByAuthor",
      "outputs": [
        {
          "components": [
            {
              "internalType": "uint256",
              "name": "id",
              "type": "uint256"
            },
            {
              "internalType": "string",
              "name": "name",
              "type": "string"
            }
          ],
          "internalType": "struct ClusterData[]",
          "name": "",
          "type": "tuple[]"
        }
      ],
      "stateMutability": "view",
      "type": "function"
    },
    {
      "inputs": [
        {
          "internalType": "uint256",
          "name": "_idCluster",
          "type": "uint256"
        }
      ],
      "name": "getFilesByCluster",
      "outputs": [
        {
          "components": [
            {
              "internalType": "uint256",
              "name": "id",
              "type": "uint256"
            },
            {
              "internalType": "string",
              "name": "name",
              "type": "string"
            },
            {
              "internalType": "string",
              "name": "description",
              "type": "string"
            },
            {
              "internalType": "string",
              "name": "ipfsHash",
              "type": "string"
            },
            {
              "internalType": "string",
              "name": "createdAt",
              "type": "string"
            },
            {
              "internalType": "string",
              "name": "catalog",
              "type": "string"
            },
            {
              "internalType": "address",
              "name": "author",
              "type": "address"
            },
            {
              "internalType": "string",
              "name": "authorName",
              "type": "string"
            },
            {
              "internalType": "enum Status",
              "name": "isAvailable",
              "type": "uint8"
            },
            {
              "internalType": "string",
              "name": "clusterName",
              "type": "string"
            },
            {
              "internalType": "uint256",
              "name": "clusterId",
              "type": "uint256"
            }
          ],
          "internalType": "struct FileData[]",
          "name": "",
          "type": "tuple[]"
        }
      ],
      "stateMutability": "view",
      "type": "function"
    },
    {
      "inputs": [],
      "name": "getFilesByMe",
      "outputs": [
        {
          "components": [
            {
              "internalType": "uint256",
              "name": "id",
              "type": "uint256"
            },
            {
              "internalType": "string",
              "name": "name",
              "type": "string"
            },
            {
              "internalType": "string",
              "name": "description",
              "type": "string"
            },
            {
              "internalType": "string",
              "name": "ipfsHash",
              "type": "string"
            },
            {
              "internalType": "string",
              "name": "createdAt",
              "type": "string"
            },
            {
              "internalType": "string",
              "name": "catalog",
              "type": "string"
            },
            {
              "internalType": "address",
              "name": "author",
              "type": "address"
            },
            {
              "internalType": "string",
              "name": "authorName",
              "type": "string"
            },
            {
              "internalType": "enum Status",
              "name": "isAvailable",
              "type": "uint8"
            },
            {
              "internalType": "string",
              "name": "clusterName",
              "type": "string"
            },
            {
              "internalType": "uint256",
              "name": "clusterId",
              "type": "uint256"
            }
          ],
          "internalType": "struct FileData[]",
          "name": "",
          "type": "tuple[]"
        }
      ],
      "stateMutability": "view",
      "type": "function"
    },
    {
      "inputs": [
        {
          "internalType": "address",
          "name": "_user",
          "type": "address"
        }
      ],
      "name": "getFilesGrantedAccess",
      "outputs": [
        {
          "components": [
            {
              "internalType": "uint256",
              "name": "id",
              "type": "uint256"
            },
            {
              "internalType": "string",
              "name": "name",
              "type": "string"
            },
            {
              "internalType": "string",
              "name": "description",
              "type": "string"
            },
            {
              "internalType": "string",
              "name": "ipfsHash",
              "type": "string"
            },
            {
              "internalType": "string",
              "name": "createdAt",
              "type": "string"
            },
            {
              "internalType": "string",
              "name": "catalog",
              "type": "string"
            },
            {
              "internalType": "address",
              "name": "author",
              "type": "address"
            },
            {
              "internalType": "string",
              "name": "authorName",
              "type": "string"
            },
            {
              "internalType": "enum Status",
              "name": "isAvailable",
              "type": "uint8"
            },
            {
              "internalType": "string",
              "name": "clusterName",
              "type": "string"
            },
            {
              "internalType": "uint256",
              "name": "clusterId",
              "type": "uint256"
            }
          ],
          "internalType": "struct FileData[]",
          "name": "",
          "type": "tuple[]"
        }
      ],
      "stateMutability": "view",
      "type": "function"
    },
    {
      "inputs": [],
      "name": "getMe",
      "outputs": [
        {
          "components": [
            {
              "internalType": "address",
              "name": "addressUser",
              "type": "address"
            },
            {
              "internalType": "string",
              "name": "name",
              "type": "string"
            },
            {
              "internalType": "enum Role",
              "name": "role",
              "type": "uint8"
            }
          ],
          "internalType": "struct User",
          "name": "user",
          "type": "tuple"
        }
      ],
      "stateMutability": "view",
      "type": "function"
    },
    {
      "inputs": [
        {
          "internalType": "address",
          "name": "_addrss",
          "type": "address"
        }
      ],
      "name": "getUserNameByAddress",
      "outputs": [
        {
          "internalType": "string",
          "name": "userName",
          "type": "string"
        }
      ],
      "stateMutability": "view",
      "type": "function"
    },
    {
      "inputs": [
        {
          "internalType": "uint256",
          "name": "_idCluster",
          "type": "uint256"
        },
        {
          "internalType": "uint256",
          "name": "_fileId",
          "type": "uint256"
        },
        {
          "internalType": "address",
          "name": "_requester",
          "type": "address"
        }
      ],
      "name": "grantAccess",
      "outputs": [],
      "stateMutability": "nonpayable",
      "type": "function"
    },
    {
      "inputs": [
        {
          "internalType": "uint256",
          "name": "_idCluster",
          "type": "uint256"
        },
        {
          "internalType": "uint256",
          "name": "_fileId",
          "type": "uint256"
        }
      ],
      "name": "rejectFile",
      "outputs": [],
      "stateMutability": "nonpayable",
      "type": "function"
    },
    {
      "inputs": [
        {
          "internalType": "uint256",
          "name": "_idCluster",
          "type": "uint256"
        },
        {
          "internalType": "uint256",
          "name": "_fileId",
          "type": "uint256"
        },
        {
          "internalType": "address",
          "name": "_requester",
          "type": "address"
        }
      ],
      "name": "removeAccess",
      "outputs": [],
      "stateMutability": "nonpayable",
      "type": "function"
    },
    {
      "inputs": [
        {
          "internalType": "uint256",
          "name": "_idCluster",
          "type": "uint256"
        },
        {
          "internalType": "uint256",
          "name": "_fileId",
          "type": "uint256"
        }
      ],
      "name": "requestAccess",
      "outputs": [],
      "stateMutability": "nonpayable",
      "type": "function"
    },
    {
      "inputs": [],
      "name": "signin",
      "outputs": [
        {
          "components": [
            {
              "internalType": "address",
              "name": "addressUser",
              "type": "address"
            },
            {
              "internalType": "string",
              "name": "name",
              "type": "string"
            },
            {
              "internalType": "enum Role",
              "name": "role",
              "type": "uint8"
            }
          ],
          "internalType": "struct User",
          "name": "",
          "type": "tuple"
        }
      ],
      "stateMutability": "nonpayable",
      "type": "function"
    },
    {
      "inputs": [
        {
          "internalType": "string",
          "name": "_name",
          "type": "string"
        },
        {
          "internalType": "enum Role",
          "name": "_role",
          "type": "uint8"
        }
      ],
      "name": "updateUser",
      "outputs": [],
      "stateMutability": "nonpayable",
      "type": "function"
    },
    {
      "inputs": [],
      "name": "userCount",
      "outputs": [
        {
          "internalType": "uint256",
          "name": "",
          "type": "uint256"
        }
      ],
      "stateMutability": "view",
      "type": "function"
    },
    {
      "inputs": [
        {
          "internalType": "uint256",
          "name": "",
          "type": "uint256"
        }
      ],
      "name": "users",
      "outputs": [
        {
          "internalType": "address",
          "name": "addressUser",
          "type": "address"
        },
        {
          "internalType": "string",
          "name": "name",
          "type": "string"
        },
        {
          "internalType": "enum Role",
          "name": "role",
          "type": "uint8"
        }
      ],
      "stateMutability": "view",
      "type": "function"
    }
  ],
  "bytecode": "0x608060405234801561001057600080fd5b50600080546001600160a01b0319163317905561336c806100326000396000f3fe608060405234801561001057600080fd5b50600436106101585760003560e01c8063919500c0116100c3578063ce0889bd1161007c578063ce0889bd146102ff578063d4c355cd14610312578063d832af741461031a578063d9ac7cfa1461032d578063eb1e92e314610335578063f282a4611461033d57600080fd5b8063919500c01461027a5780639ee580511461029c578063a4297e4e146102a4578063b712aa1c146102b7578063bc1a401d146102d7578063c11e1ff3146102ea57600080fd5b80632b0b37f6116101155780632b0b37f6146101f6578063365b98b214610216578063390deb1d146102385780636c4e84441461024b578063702f45f31461025e578063731d01761461026757600080fd5b806307973ccf1461015d5780630cec17511461017957806310fe472b1461019957806316f1d42a146101b95780631b159ab4146101ce5780631c21f426146101e3575b600080fd5b61016660045481565b6040519081526020015b60405180910390f35b61018c610187366004612b12565b610350565b6040516101709190612bbc565b6101ac6101a7366004612d2f565b61077f565b6040516101709190612d51565b6101c161086a565b6040516101709190612d8b565b6101e16101dc366004612ded565b6109bf565b005b61018c6101f1366004612d2f565b610b44565b610209610204366004612b12565b6110b7565b6040516101709190612e0f565b610229610224366004612b12565b611190565b60405161017093929190612e22565b6101e1610246366004612f02565b611248565b6101e1610259366004612f37565b6112c8565b61016660025481565b6101e1610275366004612f8d565b61139e565b61028d610288366004612b12565b6114b2565b60405161017093929190613067565b6101c1611568565b6101e16102b236600461309b565b6116cc565b6102ca6102c5366004612ded565b61186d565b6040516101709190613118565b6102ca6102e5366004612ded565b611a57565b6102f2611c37565b604051610170919061316d565b6101e161030d36600461309b565b611d77565b6102f2611e41565b6101e1610328366004612ded565b61203d565b61018c6120aa565b61018c61257f565b6101e161034b366004612ded565b61295f565b6000818152600160205260408120600201546060919067ffffffffffffffff81111561037e5761037e612e5f565b6040519080825280602002602001820160405280156103b757816020015b6103a46129cf565b81526020019060019003908161039c5790505b5090506000805b6000858152600160205260409020600201548110156107765760008581526001602090815260408083208484526003019091528120845190919085908590811061040a5761040a613180565b60209081029190910101518481528254909150829061042890613196565b80601f016020809104026020016040519081016040528092919081815260200182805461045490613196565b80156104a15780601f10610476576101008083540402835291602001916104a1565b820191906000526020600020905b81548152906001019060200180831161048457829003601f168201915b505050505081602001819052508160010180546104bd90613196565b80601f01602080910402602001604051908101604052809291908181526020018280546104e990613196565b80156105365780601f1061050b57610100808354040283529160200191610536565b820191906000526020600020905b81548152906001019060200180831161051957829003601f168201915b5050505050816040018190525081600201805461055290613196565b80601f016020809104026020016040519081016040528092919081815260200182805461057e90613196565b80156105cb5780601f106105a0576101008083540402835291602001916105cb565b820191906000526020600020905b8154815290600101906020018083116105ae57829003601f168201915b5050505050606082015260038201546001600160a01b031660c082018190526105f39061077f565b60e082015260048201805461060790613196565b80601f016020809104026020016040519081016040528092919081815260200182805461063390613196565b80156106805780601f1061065557610100808354040283529160200191610680565b820191906000526020600020905b81548152906001019060200180831161066357829003601f168201915b5050505050816080018190525081600501805461069c90613196565b80601f01602080910402602001604051908101604052809291908181526020018280546106c890613196565b80156107155780601f106106ea57610100808354040283529160200191610715565b820191906000526020600020905b8154815290600101906020018083116106f857829003601f168201915b505050505060a0820152600682015461010082019060ff16600281111561073e5761073e612b78565b9081600281111561075157610751612b78565b9052508361075e816131e1565b9450505050808061076e906131e1565b9150506103be565b50815292915050565b606060005b600454811015610864576000818152600360205260409020546001600160a01b038481169116141561085257600081815260036020526040902060010180546107cc90613196565b80601f01602080910402602001604051908101604052809291908181526020018280546107f890613196565b80156108455780601f1061081a57610100808354040283529160200191610845565b820191906000526020600020905b81548152906001019060200180831161082857829003601f168201915b5050505050915050919050565b8061085c816131e1565b915050610784565b50919050565b6060600060025467ffffffffffffffff81111561088957610889612e5f565b6040519080825280602002602001820160405280156108cf57816020015b6040805180820190915260008152606060208201528152602001906001900390816108a75790505b50905060005b600254811015610864576000818152600160205260408120835190919084908490811061090457610904613180565b602002602001015190508281600001818152505081600101805461092790613196565b80601f016020809104026020016040519081016040528092919081815260200182805461095390613196565b80156109a05780601f10610975576101008083540402835291602001916109a0565b820191906000526020600020905b81548152906001019060200180831161098357829003601f168201915b50505050602090920152508190506109b7816131e1565b9150506108d5565b600082815260016020818152604080842085855260030190915290912090600682015460ff1660028111156109f6576109f6612b78565b14610a1c5760405162461bcd60e51b8152600401610a13906131fc565b60405180910390fd5b33600090815260078201602052604090205460ff1615610a7e5760405162461bcd60e51b815260206004820152601960248201527f46696c652069732072657175657374696e6720616363657373000000000000006044820152606401610a13565b33600090815260088201602052604090205460ff1615610ad95760405162461bcd60e51b815260206004820152601660248201527546696c65206973206772616e7465642061636365737360501b6044820152606401610a13565b3360008181526007830160209081526040808320805460ff19166001908117909155878452918290529182902091517f92264dff32b9f839b4e621e9346db1fae9efeca8cb7eca8a8b88db3566adffe292610b3792019085906132cb565b60405180910390a2505050565b60606000805b600254811015610bd8576000818152600160205260408120905b8160020154811015610bc357600081815260038301602090815260408083206001600160a01b038a168452600881019092529091205460ff1615610bb05784610bac816131e1565b9550505b5080610bbb816131e1565b915050610b64565b50508080610bd0906131e1565b915050610b4a565b5060008167ffffffffffffffff811115610bf457610bf4612e5f565b604051908082528060200260200182016040528015610c2d57816020015b610c1a6129cf565b815260200190600190039081610c125790505b5090506000805b6002548110156110ad576000818152600160205260408120905b816002015481101561109857600081815260038301602090815260408083206001600160a01b038c168452600881019092529091205460ff1615611085576000604051806101600160405280848152602001836000018054610caf90613196565b80601f0160208091040260200160405190810160405280929190818152602001828054610cdb90613196565b8015610d285780601f10610cfd57610100808354040283529160200191610d28565b820191906000526020600020905b815481529060010190602001808311610d0b57829003601f168201915b50505050508152602001836001018054610d4190613196565b80601f0160208091040260200160405190810160405280929190818152602001828054610d6d90613196565b8015610dba5780601f10610d8f57610100808354040283529160200191610dba565b820191906000526020600020905b815481529060010190602001808311610d9d57829003601f168201915b50505050508152602001836002018054610dd390613196565b80601f0160208091040260200160405190810160405280929190818152602001828054610dff90613196565b8015610e4c5780601f10610e2157610100808354040283529160200191610e4c565b820191906000526020600020905b815481529060010190602001808311610e2f57829003601f168201915b50505050508152602001836004018054610e6590613196565b80601f0160208091040260200160405190810160405280929190818152602001828054610e9190613196565b8015610ede5780601f10610eb357610100808354040283529160200191610ede565b820191906000526020600020905b815481529060010190602001808311610ec157829003601f168201915b50505050508152602001836005018054610ef790613196565b80601f0160208091040260200160405190810160405280929190818152602001828054610f2390613196565b8015610f705780601f10610f4557610100808354040283529160200191610f70565b820191906000526020600020905b815481529060010190602001808311610f5357829003601f168201915b505050918352505060038401546001600160a01b031660208201819052604090910190610f9c9061077f565b8152600684015460209091019060ff166002811115610fbd57610fbd612b78565b8152602001856001018054610fd190613196565b80601f0160208091040260200160405190810160405280929190818152602001828054610ffd90613196565b801561104a5780601f1061101f5761010080835404028352916020019161104a565b820191906000526020600020905b81548152906001019060200180831161102d57829003601f168201915b50505091835250506020018690529050808787611066816131e1565b98508151811061107857611078613180565b6020026020010181905250505b5080611090816131e1565b915050610c4e565b505080806110a5906131e1565b915050610c34565b5090949350505050565b60408051808201909152600081526060602082015260006001600084815260200190815260200160002090506000604051806040016040528085815260200183600101805461110590613196565b80601f016020809104026020016040519081016040528092919081815260200182805461113190613196565b801561117e5780601f106111535761010080835404028352916020019161117e565b820191906000526020600020905b81548152906001019060200180831161116157829003601f168201915b50505091909252509095945050505050565b600360205260009081526040902080546001820180546001600160a01b0390921692916111bc90613196565b80601f01602080910402602001604051908101604052809291908181526020018280546111e890613196565b80156112355780601f1061120a57610100808354040283529160200191611235565b820191906000526020600020905b81548152906001019060200180831161121857829003601f168201915b5050506002909301549192505060ff1683565b6002805460009182611259836131e1565b9091555060008181526001602081815260409092208551939450926112849291840191860190612a43565b5080546001600160a01b0319163390811782556040518391907fc66d40b177a2bdb4dd71f50876e997d911ea40c2be60b1be26a39e10a076faab90600090a3505050565b60005b600454811015611399576000818152600360205260409020546001600160a01b031633141561138757600081815260036020908152604090912080546001600160a01b031916331781558451909161132a916001840191870190612a43565b50828160020160006101000a81548160ff0219169083600281111561135157611351612b78565b021790555060405133907f0163b5f10e25c839f35e6f2b201b31e88e17f49e6956232de5d2e6bbae3b78b890600090a250505050565b80611391816131e1565b9150506112cb565b505050565b6000818152600160205260408120600201805490826113bc836131e1565b90915550600083815260016020908152604080832084845260030182529091208951929350916113f1918391908b0190612a43565b50865161140790600183019060208a0190612a43565b50855161141d9060028301906020890190612a43565b506003810180546001600160a01b0319163317905584516114479060048301906020880190612a43565b50835161145d9060058301906020870190612a43565b5060068101805460ff19169055604051829033907f931a47dbf66bf525c4f6017aa076b195a2dbc0f5ce1038738322cf763ecc0232906114a0908c908b906132f9565b60405180910390a35050505050505050565b6001602081905260009182526040909120805491810180546001600160a01b03909316926114df90613196565b80601f016020809104026020016040519081016040528092919081815260200182805461150b90613196565b80156115585780601f1061152d57610100808354040283529160200191611558565b820191906000526020600020905b81548152906001019060200180831161153b57829003601f168201915b5050505050908060020154905083565b6060600060025467ffffffffffffffff81111561158757611587612e5f565b6040519080825280602002602001820160405280156115cd57816020015b6040805180820190915260008152606060208201528152602001906001900390816115a55790505b50905060005b60025481101561086457600081815260016020526040902080546001600160a01b03163314156116b957600083838151811061161157611611613180565b602002602001015190508281600001818152505081600101805461163490613196565b80601f016020809104026020016040519081016040528092919081815260200182805461166090613196565b80156116ad5780601f10611682576101008083540402835291602001916116ad565b820191906000526020600020905b81548152906001019060200180831161169057829003601f168201915b50505050602090920152505b50806116c4816131e1565b9150506115d3565b600083815260016020818152604080842086855260030190915290912090600682015460ff16600281111561170357611703612b78565b146117205760405162461bcd60e51b8152600401610a13906131fc565b6001600160a01b038216600090815260078201602052604090205460ff166117965760405162461bcd60e51b815260206004820152602360248201527f4e6f2061636365737320726571756573742066726f6d2074686973206164647260448201526265737360e81b6064820152608401610a13565b60038101546001600160a01b031633146117e75760405162461bcd60e51b81526020600482015260126024820152713cb7ba9030b932903737ba1030baba3437b960711b6044820152606401610a13565b6001600160a01b038216600081815260088301602090815260408083208054600160ff19918216811790925560078701845282852080549091169055888452918290529182902091517f83d90dfabb9dd5929f37bedd596ec8b76fec40556dcf87a93c891c43ecbc35a29261185f92019085906132cb565b60405180910390a250505050565b6060600060045467ffffffffffffffff81111561188c5761188c612e5f565b6040519080825280602002602001820160405280156118c557816020015b6118b2612ac3565b8152602001906001900390816118aa5790505b5090506000805b600454811015611a4d57600086815260016020818152604080842089855260039081018352818520868652908352818520546001600160a01b031685526008019091529091205460ff1615151415611a3b5760008181526003602090815260409182902082516060810190935280546001600160a01b03168352600181018054919284019161195a90613196565b80601f016020809104026020016040519081016040528092919081815260200182805461198690613196565b80156119d35780601f106119a8576101008083540402835291602001916119d3565b820191906000526020600020905b8154815290600101906020018083116119b657829003601f168201915b505050918352505060028281015460209092019160ff16908111156119fa576119fa612b78565b6002811115611a0b57611a0b612b78565b81525050838381518110611a2157611a21613180565b60200260200101819052508180611a37906131e1565b9250505b80611a45816131e1565b9150506118cc565b5081529392505050565b6060600060045467ffffffffffffffff811115611a7657611a76612e5f565b604051908082528060200260200182016040528015611aaf57816020015b611a9c612ac3565b815260200190600190039081611a945790505b5090506000805b600454811015611a4d57600086815260016020818152604080842089855260039081018352818520868652908352818520546001600160a01b031685526007019091529091205460ff1615151415611c255760008181526003602090815260409182902082516060810190935280546001600160a01b031683526001810180549192840191611b4490613196565b80601f0160208091040260200160405190810160405280929190818152602001828054611b7090613196565b8015611bbd5780601f10611b9257610100808354040283529160200191611bbd565b820191906000526020600020905b815481529060010190602001808311611ba057829003601f168201915b505050918352505060028281015460209092019160ff1690811115611be457611be4612b78565b6002811115611bf557611bf5612b78565b81525050838381518110611c0b57611c0b613180565b60200260200101819052508180611c21906131e1565b9250505b80611c2f816131e1565b915050611ab6565b611c3f612ac3565b60005b600454811015611d73576000818152600360205260409020546001600160a01b0316331415611d615760008181526003602090815260409182902082516060810190935280546001600160a01b031683526001810180549192840191611ca790613196565b80601f0160208091040260200160405190810160405280929190818152602001828054611cd390613196565b8015611d205780601f10611cf557610100808354040283529160200191611d20565b820191906000526020600020905b815481529060010190602001808311611d0357829003601f168201915b505050918352505060028281015460209092019160ff1690811115611d4757611d47612b78565b6002811115611d5857611d58612b78565b90525092915050565b80611d6b816131e1565b915050611c42565b5090565b600083815260016020818152604080842086855260030190915290912090600682015460ff166002811115611dae57611dae612b78565b14611dcb5760405162461bcd60e51b8152600401610a13906131fc565b6001600160a01b03821660008181526007830160209081526040808320805460ff19908116909155600886018352818420805490911690558783526001918290529182902091517f256911671fada4de3df96dceea6052a243d33d7adacd9d2a4e3f95838008f0989261185f92019085906132cb565b611e49612ac3565b60005b600454811015611ec3576000818152600360205260409020546001600160a01b0316331415611eb15760008181526003602090815260409182902082516060810190935280546001600160a01b031683526001810180549192840191611ca790613196565b80611ebb816131e1565b915050611e4c565b506004805460009182611ed5836131e1565b9091555060008181526003602090815260409182902080546001600160a01b0319163317815582518084019093526004808452633ab9b2b960e11b93909201928352929350611f28916001840191612a43565b5060405133907f779427a15ff3ad15d8305e70af02f3aee4d4f9c9006ff51314450d7acb54644890600090a2604080516060810190915281546001600160a01b0316815260018201805483916020840191611f8290613196565b80601f0160208091040260200160405190810160405280929190818152602001828054611fae90613196565b8015611ffb5780601f10611fd057610100808354040283529160200191611ffb565b820191906000526020600020905b815481529060010190602001808311611fde57829003601f168201915b505050918352505060028281015460209092019160ff169081111561202257612022612b78565b600281111561203357612033612b78565b9052509392505050565b6000828152600160209081526040808320848452600390810190925280832060068101805460ff19166002179055918201549051919285926001600160a01b03909216917fddf21da737cbdeb0d7d491a57478dfa3e50e928716f9c7b0d7da21adf2974b279190a3505050565b60606000805b6002548110156120ea576000818152600160205260409020600201546120d6908361331e565b9150806120e2816131e1565b9150506120b0565b5060008167ffffffffffffffff81111561210657612106612e5f565b60405190808252806020026020018201604052801561213f57816020015b61212c6129cf565b8152602001906001900390816121245790505b5090506000805b600254811015610776576000818152600160205260408120905b816002015481101561256a57600081815260038301602052604090206001600682015460ff16600281111561219757612197612b78565b1480156121b1575060038101546001600160a01b03163314155b156125575760008686815181106121ca576121ca613180565b6020908102919091010151838152825490915082906121e890613196565b80601f016020809104026020016040519081016040528092919081815260200182805461221490613196565b80156122615780601f1061223657610100808354040283529160200191612261565b820191906000526020600020905b81548152906001019060200180831161224457829003601f168201915b5050505050816020018190525081600101805461227d90613196565b80601f01602080910402602001604051908101604052809291908181526020018280546122a990613196565b80156122f65780601f106122cb576101008083540402835291602001916122f6565b820191906000526020600020905b8154815290600101906020018083116122d957829003601f168201915b5050505050604082015260038201546001600160a01b031660c0820181905261231e9061077f565b60e082015260048201805461233290613196565b80601f016020809104026020016040519081016040528092919081815260200182805461235e90613196565b80156123ab5780601f10612380576101008083540402835291602001916123ab565b820191906000526020600020905b81548152906001019060200180831161238e57829003601f168201915b505050505081608001819052508160050180546123c790613196565b80601f01602080910402602001604051908101604052809291908181526020018280546123f390613196565b80156124405780601f1061241557610100808354040283529160200191612440565b820191906000526020600020905b81548152906001019060200180831161242357829003601f168201915b505050505060a0820152600682015461010082019060ff16600281111561246957612469612b78565b9081600281111561247c5761247c612b78565b90525033600090815260088301602052604090205460ff1615612533578160020180546124a890613196565b80601f01602080910402602001604051908101604052809291908181526020018280546124d490613196565b80156125215780601f106124f657610100808354040283529160200191612521565b820191906000526020600020905b81548152906001019060200180831161250457829003601f168201915b50505050508160600181905250612548565b60408051602081019091526000815260608201525b85612552816131e1565b965050505b5080612562816131e1565b915050612160565b50508080612577906131e1565b915050612146565b60606000805b6002548110156125bf576000818152600160205260409020600201546125ab908361331e565b9150806125b7816131e1565b915050612585565b5060008167ffffffffffffffff8111156125db576125db612e5f565b60405190808252806020026020018201604052801561261457816020015b6126016129cf565b8152602001906001900390816125f95790505b5090506000805b600254811015610776576000818152600160205260408120905b816002015481101561294a57600081815260038084016020526040909120908101546001600160a01b031633141561293757600086868151811061267b5761267b613180565b60209081029190910101518681528254909150829061269990613196565b80601f01602080910402602001604051908101604052809291908181526020018280546126c590613196565b80156127125780601f106126e757610100808354040283529160200191612712565b820191906000526020600020905b8154815290600101906020018083116126f557829003601f168201915b5050505050816020018190525081600101805461272e90613196565b80601f016020809104026020016040519081016040528092919081815260200182805461275a90613196565b80156127a75780601f1061277c576101008083540402835291602001916127a7565b820191906000526020600020905b81548152906001019060200180831161278a57829003601f168201915b505050505081604001819052508160020180546127c390613196565b80601f01602080910402602001604051908101604052809291908181526020018280546127ef90613196565b801561283c5780601f106128115761010080835404028352916020019161283c565b820191906000526020600020905b81548152906001019060200180831161281f57829003601f168201915b5050505050606082015260038201546001600160a01b031660c082015260048201805461286890613196565b80601f016020809104026020016040519081016040528092919081815260200182805461289490613196565b80156128e15780601f106128b6576101008083540402835291602001916128e1565b820191906000526020600020905b8154815290600101906020018083116128c457829003601f168201915b50505050506080820152600682015461010082019060ff16600281111561290a5761290a612b78565b9081600281111561291d5761291d612b78565b905250610140810185905285612932816131e1565b965050505b5080612942816131e1565b915050612635565b50508080612957906131e1565b91505061261b565b600082815260016020818152604080842085855260030190915290912060068101805491929160ff191682800217905550600381015460405184916001600160a01b0316907f918bd49f08e7493446fe6d173e80824713f479e3938537da33ed68e70e8b6b1490600090a3505050565b60405180610160016040528060008152602001606081526020016060815260200160608152602001606081526020016060815260200160006001600160a01b031681526020016060815260200160006002811115612a2f57612a2f612b78565b815260200160608152602001600081525090565b828054612a4f90613196565b90600052602060002090601f016020900481019282612a715760008555612ab7565b82601f10612a8a57805160ff1916838001178555612ab7565b82800160010185558215612ab7579182015b82811115612ab7578251825591602001919060010190612a9c565b50611d73929150612afd565b604051806060016040528060006001600160a01b031681526020016060815260200160006002811115612af857612af8612b78565b905290565b5b80821115611d735760008155600101612afe565b600060208284031215612b2457600080fd5b5035919050565b6000815180845260005b81811015612b5157602081850181015186830182015201612b35565b81811115612b63576000602083870101525b50601f01601f19169290920160200192915050565b634e487b7160e01b600052602160045260246000fd5b60038110612bac57634e487b7160e01b600052602160045260246000fd5b50565b612bb881612b8e565b9052565b60006020808301818452808551808352604092508286019150828160051b87010184880160005b83811015612d0557603f1989840301855281516101608151855288820151818a870152612c1282870182612b2b565b9150508782015185820389870152612c2a8282612b2b565b91505060608083015186830382880152612c448382612b2b565b9250505060808083015186830382880152612c5f8382612b2b565b9250505060a08083015186830382880152612c7a8382612b2b565b9250505060c080830151612c98828801826001600160a01b03169052565b505060e08083015186830382880152612cb18382612b2b565b9250505061010080830151612cc882880182612baf565b50506101208083015186830382880152612ce28382612b2b565b610140948501519790940196909652505094870194925090860190600101612be3565b509098975050505050505050565b80356001600160a01b0381168114612d2a57600080fd5b919050565b600060208284031215612d4157600080fd5b612d4a82612d13565b9392505050565b602081526000612d4a6020830184612b2b565b805182526000602082015160406020850152612d836040850182612b2b565b949350505050565b6000602080830181845280855180835260408601915060408160051b870101925083870160005b82811015612de057603f19888603018452612dce858351612d64565b94509285019290850190600101612db2565b5092979650505050505050565b60008060408385031215612e0057600080fd5b50508035926020909101359150565b602081526000612d4a6020830184612d64565b6001600160a01b0384168152606060208201819052600090612e4690830185612b2b565b9050612e5183612b8e565b826040830152949350505050565b634e487b7160e01b600052604160045260246000fd5b600082601f830112612e8657600080fd5b813567ffffffffffffffff80821115612ea157612ea1612e5f565b604051601f8301601f19908116603f01168101908282118183101715612ec957612ec9612e5f565b81604052838152866020858801011115612ee257600080fd5b836020870160208301376000602085830101528094505050505092915050565b600060208284031215612f1457600080fd5b813567ffffffffffffffff811115612f2b57600080fd5b612d8384828501612e75565b60008060408385031215612f4a57600080fd5b823567ffffffffffffffff811115612f6157600080fd5b612f6d85828601612e75565b925050602083013560038110612f8257600080fd5b809150509250929050565b60008060008060008060c08789031215612fa657600080fd5b863567ffffffffffffffff80821115612fbe57600080fd5b612fca8a838b01612e75565b97506020890135915080821115612fe057600080fd5b612fec8a838b01612e75565b9650604089013591508082111561300257600080fd5b61300e8a838b01612e75565b9550606089013591508082111561302457600080fd5b6130308a838b01612e75565b9450608089013591508082111561304657600080fd5b5061305389828a01612e75565b92505060a087013590509295509295509295565b6001600160a01b038416815260606020820181905260009061308b90830185612b2b565b9050826040830152949350505050565b6000806000606084860312156130b057600080fd5b83359250602084013591506130c760408501612d13565b90509250925092565b60018060a01b03815116825260006020820151606060208501526130f76060850182612b2b565b9050604083015161310781612b8e565b806040860152508091505092915050565b6000602080830181845280855180835260408601915060408160051b870101925083870160005b82811015612de057603f1988860301845261315b8583516130d0565b9450928501929085019060010161313f565b602081526000612d4a60208301846130d0565b634e487b7160e01b600052603260045260246000fd5b600181811c908216806131aa57607f821691505b6020821081141561086457634e487b7160e01b600052602260045260246000fd5b634e487b7160e01b600052601160045260246000fd5b60006000198214156131f5576131f56131cb565b5060010190565b60208082526015908201527446696c65206973206e6f7420617661696c61626c6560581b604082015260600190565b8054600090600181811c908083168061324557607f831692505b602080841082141561326757634e487b7160e01b600052602260045260246000fd5b838852602088018280156132825760018114613293576132be565b60ff198716825282820197506132be565b60008981526020902060005b878110156132b85781548482015290860190840161329f565b83019850505b5050505050505092915050565b6040815260006132de604083018561322b565b82810360208401526132f0818561322b565b95945050505050565b60408152600061330c6040830185612b2b565b82810360208401526132f08185612b2b565b60008219821115613331576133316131cb565b50019056fea264697066735822122002fbf62a4c2adee3316e0020f1af760e7a759aa116141208df4e4df6fbc030fc64736f6c63430008090033",
  "linkReferences": {},
  "deployedLinkReferences": {}
}